:020000040800F2
:1000000000000220C92C000889010008990100089D
:10001000A1010008A9010008B101000800000000CA
:10002000000000000000000000000000B90100080E
:10003000C901000800000000D9010008E90100081A
:100040000D2D00080D2D00080D2D00080D2D0008A8
:100050000D2D00080D2D00080D2D00080D2D000898
:100060000D2D00080D2D00080D2D00080D2D000888
:100070000D2D00080D2D00080D2D00080D2D000878
:100080000D2D00080D2D00080D2D00080D2D000868
:100090000D2D00080D2D00080D2D00080D2D000858
:1000A0000D2D00080D2D00080D2D00080D2D000848
:1000B0000D2D00080D2D00080D2D00080D2D000838
:1000C0000D2D00080D2D00080D2D00080D2D000828
:1000D0000D2D00080D2D00080D2D00080D2D000818
:1000E0000D2D00080D2D00080D2D00080D2D000808
:1000F0000D2D00080D2D00080D2D00080D2D0008F8
:100100000D2D00080D2D00080D2D00080D2D0008E7
:100110000D2D00080D2D00080D2D00080D2D0008D7
:100120000D2D00080D2D00080D2D00080D2D0008C7
:100130000D2D00080D2D00080D2D00080D2D0008B7
:100140000D2D00080D2D00080D2D00080D2D0008A7
:100150000D2D00080D2D00080D2D00080D2D000897
:100160000D2D00080D2D00080D2D00080D2D000887
:100170000D2D00080D2D00080D2D00080D2D000877
:080180000D2D00080D2D0008F3
:1001880080B400AF00BFBD465DF8047B704700BF78
:1001980080B400AFFEE700BF80B400AFFEE700BF49
:1001A80080B400AFFEE700BF80B400AFFEE700BF39
:1001B80080B400AF00BFBD465DF8047B704700BF48
:1001C80080B400AF00BFBD465DF8047B704700BF38
:1001D80080B400AF00BFBD465DF8047B704700BF28
:1001E80080B400AF00BFBD465DF8047B704700BF18
:1001F80080B500AF164A164BD3F8883043F4700325
:10020800C2F88830134A134B1B6843F0010313608C
:10021800104B00229A600F4A0E4B1B6823F0847320
:1002280023F4803313600B4B0B4A5A60094A094B7D
:100238001B6823F480231360064B0022DA6000F069
:100248008BF8034B4FF000629A6000BF80BD00BF7F
:1002580000ED00E0003802401030002480B487B080
:1002680000AF00233B6100237B610223FB60002376
:10027800BB6002237B60334B9B6803F00C033B613C
:100288003B69042B07D0082B09D0002B3FD12E4BFC
:100298002E4A1A603FE02C4B2D4A1A603BE0294B4E
:1002A8005B6803F480039B0DBB60264B5B6803F01F
:1002B8003F037B60BB68002B0DD0254A7B68B2FBEF
:1002C800F3F2204B596847F6C0730B409B0903FBB8
:1002D80002F37B610CE01D4A7B68B2FBF3F2194B19
:1002E800596847F6C0730B409B0903FB02F37B6117
:1002F800144B5B6803F440331B0C01335B00FB6059
:100308007A69FB68B2FBF3F30F4A136003E00E4B04
:100318000E4A1A6000BF0B4B9B6803F0F0031B09E1
:100328000C4AD35CDBB23B61074B1A683B6922FA83
:1003380003F3054A136000BF1C37BD465DF8047B14
:10034800704700BF00380240000000200024F4007D
:1003580000127A000400002080B483B000AF0023AC
:100368007B6000233B60364A354B1B6843F480337F
:100378001360334B1B6803F400333B607B68013325
:100388007B603B68002B03D17B68B3F5A04FF0D1AD
:100398002B4B1B6803F40033002B02D001233B6076
:1003A80001E000233B603B68012B42D1244A244BE7
:1003B8001B6C43F080531364224A224B1B6843F49E
:1003C800404313601E4A1E4B9B6893601C4A1C4B9B
:1003D8009B6843F400439360194A194B9B6843F4A4
:1003E800A0539360164B184A5A60154A144B1B6861
:1003F80043F08073136000BF114B1B6803F0007358
:10040800002BF9D0114B40F205721A600C4A0C4BC4
:100418009B6823F003039360094A094B9B6843F0E8
:100428000203936000BF064B9B6803F00C03082B84
:10043800F9D100BF0C37BD465DF8047B704700BF9B
:100448000038024000700040195A4007003C024042
:10045800B0B58AB000AF144B07F108041D462868F0
:100468006968AA68EB680FC428696969AA69EB69B1
:100478000FC400233B7001237B700123BB70402312
:10048800FB7008233B7106237B713B46184600F03E
:1004980089FA0346002B00D004E007F10803184648
:1004A80000F0F6FAFEE700BFAC2D000880B588B072
:1004B80000AF0121012001F065FB01214FF48050BC
:1004C80001F0E0FB01214FF4800001F05BFB052205
:1004D80007213B4802F0AAFB05220621384802F012
:1004E800A5FB05220521364802F0A0FB02233B723A
:1004F80002237B720023BB720223FB7220237B60E2
:100508003B1D19462E4802F01DFA80237B603B1DD7
:1005180019462B4802F016FA40237B603B1D19460A
:10052800274802F00FFA01233B720123FB721023C4
:100538007B603B1D1946224802F004FA4FF4807391
:100548007B603B1D19461E4802F0FCF900233B72F4
:100558000123FB724FF400737B603B1D194618485A
:1005680002F0F0F9174800F0D3FA4FF48273FB81D8
:100578000023BB8100233B8200237B820023BB82B4
:100588004FF40073FB8208233B8300237B830723FC
:10059800BB8307F10C0319460A4800F027FB012129
:1005A800084800F097FC1021054802F0E5FA4FF4DE
:1005B8008071034802F0F0FA00BF2037BD4680BDC5
:1005C800000002400030014080B592B000AF786072
:1005D8000B46FB70164801F06FFDFB78FB610023AA
:1005E800BB630023FB6300233B640023FB624FF4DF
:1005F80080637B6200233B630E4B3B6100237B647B
:100608000023BB6200233B624FF400337B634FF04F
:10061800C063FB604023BB617B687B6107F10C030F
:100628001946034801F01CFE00BF4837BD4680BD8F
:10063800586402400C30014080B592B000AF786039
:100648000B46FB70164801F037FDFB78FB61002371
:10065800BB630023FB6300233B640023FB624FF46E
:1006680080637B6200233B630E4B3B6100237B640A
:100678000023BB6200233B624FF400337B634FF0DF
:10068800C063FB600023BB617B687B6107F10C03DF
:100698001946034801F0E4FD00BF4837BD4680BD58
:1006A800406402400C30014080B594B000AF03466E
:1006B8003960FB711346BB7107F12C03222200211C
:1006C800184602F021FBFF2387F82C3007F10803B6
:1006D80022220021184602F017FBFB7987F82C30FC
:1006E800012202213E4800F09BFD012201213C48E5
:1006F80000F096FD10213B4802F04EFA052000F06C
:10070800F7F9BB790233DAB207F12C031146184620
:10071800FFF75AFFBB790233DAB207F10803114633
:100728001846FFF789FF01212F4801F029FE012112
:100738002E4801F025FE00BF4FF0C0512A4801F0B5
:1007480025FF0346002BF7D000BF4FF08151274803
:1007580001F01CFF0346002BF7D04FF0C051224890
:1007680001F050FF4FF08151204801F04BFF00216C
:100778001E4801F005FE00211B4801F001FE002281
:100788000221174800F04CFD00220121144800F016
:1007980047FD052000F0ACF91021124802F0ECF9F1
:1007A800002387F84F3010E097F84F303A68134429
:1007B80097F84F20023207F108010A4412781A709C
:1007C80097F84F30013387F84F3097F84F20BB79AF
:1007D8009A42E9D37B7A18465037BD4680BD00BFA0
:1007E800003001400000024058640240406402406A
:1007F80080B58CB000AF03463960FB711346BB71FE
:1008080007F10C0321220021184602F07DFAFF238C
:100818003B73002387F82F3011E097F82F3001330E
:1008280097F82F2039680A44127807F130010B44F1
:1008380003F8242C97F82F30013387F82F3097F8D6
:100848002F20BB799A42E8D3FB793B73012202211E
:10085800304800F0E5FC012201212E4800F0E0FCC0
:1008680010212D4802F098F9052000F041F9BB79D4
:100878000133DAB207F10C0311461846FFF7A4FE5C
:1008880007F12E0301211846FFF7D6FE0121234860
:1008980001F076FD0121224801F072FD00BF4FF002
:1008A800C0511E4801F072FE0346002BF7D000BF6E
:1008B8004FF081511A4801F069FE0346002BF7D02A
:1008C8004FF0C051154801F09DFE4FF0815114487A
:1008D80001F098FE0021124801F052FD00210F4856
:1008E80001F04EFD002202210A4800F099FC002286
:1008F8000121084800F094FC052000F0F9F81021C7
:10090800054802F039F997F82E3018463037BD46B9
:1009180080BD00BF00300140000002405864024022
:100928004064024080B584B000AF1D4A07F1080357
:100938001068186012791A713B4600221A601A7101
:1009480007F10803052219462A20FFF751FF03463D
:10095800BB733B46052219460A20FFF7A5FE03464E
:10096800BB730023FB7312E0FB7B07F110021344F7
:1009780013F8102CFB7B07F110010B4413F8083C0B
:100988009A4201D0012306E0FB7B0133FB73FB7B1A
:10099800042BE9D9002318461037BD4680BD00BF97
:1009A800CC2D000880B584B000AF7860FFF77EFDDD
:1009B800FFF7B8FF0346012B01D1012363E00023B1
:1009C800FB7307F10F03012219462020FFF710FFE0
:1009D800FF23FB7307F10F03012219462720FFF7B6
:1009E80007FF4FF47A7000F083F87B681B78002BC0
:1009F80009D10A23FB7307F10F03012219462020AE
:100A0800FFF7F6FE0CE07B681B78012B08D10B235F
:100A1800FB7307F10F03012219462020FFF7E8FEB8
:100A28004CF2503000F064F87B685B78FB7307F198
:100A38000F03012219462120FFF7DAFE7B689B7815
:100A4800FB7307F10F03012219462220FFF7D0FE9E
:100A58007B68DB78FB7307F10F0301221946252019
:100A6800FFF7C6FE7B681B79FB737B685A79FB7BB3
:100A78001343DBB2FB7307F10F030122194626204B
:100A8800FFF7B6FE002318461037BD4680BD00BFED
:100A980080B584B000AF786020227968A020FFF785
:100AA800A7FE4FF480710B4802F066F8642000F04E
:100AB8001FF84FF48071074802F06EF807F10F0332
:100AC800012219460020FFF7EFFD00BF1846103736
:100AD800BD4680BD0000024080B483B000AF78609E
:100AE80000BF18460C37BD465DF8047B704700BF51
:100AF80080B483B000AF786000BF7B685A1E7A600C
:100B0800002BFAD100BF0C37BD465DF8047B704757
:100B180080B582B000AF78607B682E4A93420AD1D4
:100B280001214FF4805001F04DF900214FF480501D
:100B380001F048F949E07B68274A93420AD101212C
:100B48004FF4804001F01EF900214FF4804001F07D
:100B580019F93AE07B68214A93420AD101214FF4FE
:100B6800004001F00FF900214FF4004001F00AF9AC
:100B78002BE07B681A4A93420AD101214FF40050B6
:100B880001F020F900214FF4005001F01BF91CE09E
:100B98007B68144A93420AD101214FF4801001F076
:100BA80011F900214FF4801001F00CF90DE07B6879
:100BB8000D4A934209D101214FF4001001F002F9C6
:100BC80000214FF4001001F0FDF800BF0837BD46C2
:100BD80080BD00BF0030014000380040003C0040AC
:100BE80000340140005001400054014080B485B0F9
:100BF80000AF786039600023FB817B681B88FB812C
:100C0800FB8903F44153FB813B681A883B685B8886
:100C180013439AB23B689B8813439AB23B68DB88BC
:100C280013439AB23B681B8913439AB23B685B89AA
:100C380013439AB23B689B8913439AB23B68DB899A
:100C480013439AB2FB891343FB817B68FA891A80A4
:100C58007B689B8B9BB223F400639AB27B689A8370
:100C68003B681A8A7B681A8200BF1437BD465DF854
:100C7800047B704780B48BB000AF78603960002384
:100C8800FB820223FB840023BB8401237B84002393
:100C9800FB610023BB6100233B610023FB60002351
:100CA800BB607B689B8B9BB223F47B6323F00F03B1
:100CB8009AB27B689A837B6802221A847B689B8B32
:100CC800FB823B689B68022B04D10023BB84022370
:100CD800FB8484E03B689B88002B02D101237B8442
:100CE80001E002237B84564B9B6803F40003002B2E
:100CF80005D0534A524B9B6823F400039360504B32
:100D0800D3F8842047F6C07313409B09C3F3080344
:100D1800FB604B4BD3F8843003F0E0431B0F03F028
:100D28000703BB60464B5B6803F03F033B61444BE2
:100D38005B6803F48003002B0BD0424A3B69B2FB8B
:100D4800F3F3FA6802FB03F2BB68B2FBF3F3BB618F
:100D58000AE03D4A3B69B2FBF3F3FA6802FB03F28F
:100D6800BB68B2FBF3F3BB613B68DB88B3F5007F7C
:100D78000FD1BB691A0A13469B0013445B001A463D
:100D88003B689B68B2FBF3F39BB205339BB2FB61F4
:100D980012E07B8C5B011A46BB69B3FBF2F2134687
:100DA8009B0013445B001A463B689B68B2FBF3F355
:100DB8009BB205339BB2FB61FB69244AA2FB032368
:100DC800DB08FB61FB699BB203F00103BB84BB8CAE
:100DD800FA69D31A5B08FB84BB8C1B02BB84FB8CAF
:100DE800012B02D9FB8CFF2B03D90223FB840023A0
:100DF800BB843B68DA88BB8C13439AB2FB8C1343E1
:100E08009AB27B681A843B681A883B6859883B68A1
:100E180098883B689B8903439BB20B439BB213435F
:100E28009AB2FB8A13439BB243F40063FB827B684C
:100E3800FA8A9A8300BF2C37BD465DF8047B704759
:100E48000038024040787D010024F400CDCCCCCCA1
:100E580080B483B000AF78607B6800221A807B681A
:100E680000225A807B6800229A807B680022DA8000
:100E78007B6800221A817B6800225A817B680022E5
:100E88009A817B680022DA817B6807221A8200BF78
:100E98000C37BD465DF8047B704700BF80B483B053
:100EA80000AF78607B6800221A807B6800225A8035
:100EB8007B6800229A807B680022DA807B680222A5
:100EC8009A607B6800229A8100BF0C37BD465DF8A6
:100ED800047B704780B483B000AF78600B46FB702A
:100EE800FB78002B08D07B681B889BB243F040033B
:100EF8009AB27B681A8007E07B681B889BB223F054
:100F080040039AB27B681A8000BF0C37BD465DF873
:100F1800047B704780B483B000AF78600B46FB70E9
:100F2800FB78002B08D07B689B8B9BB243F48063D3
:100F38009AB27B689A8307E07B689B8B9BB223F409
:100F480080639AB27B689A8300BF0C37BD465DF810
:100F5800047B704780B483B000AF78600B467B8019
:100F68007B681B889BB223F400639AB27B681A8063
:100F78007B681B889AB27B8813439AB27B681A8075
:100F880000BF0C37BD465DF8047B704780B483B062
:100F980000AF78600B467B807B88B3F5804F08D123
:100FA8007B681B889BB243F480439AB27B681A80A3
:100FB80007E07B681B889BB223F480439AB27B6866
:100FC8001A8000BF0C37BD465DF8047B704700BF30
:100FD80080B483B000AF78600B467B807B884FF687
:100FE800FF62934208D07B681B889BB243F48073EE
:100FF8009AB27B681A8007E07B681B889BB223F44F
:1010080080739AB27B681A8000BF0C37BD465DF8C2
:10101800047B704780B483B000AF78600B46FB70E8
:10102800FB78002B08D07B689B889BB243F00403B5
:101038009AB27B689A8007E07B689B889BB223F012
:1010480004039AB27B689A8000BF0C37BD465DF8EE
:10105800047B704780B483B000AF78600B46FB70A8
:10106800FB78002B08D07B689B889BB243F0100369
:101078009AB27B689A8007E07B689B889BB223F0D2
:1010880010039AB27B689A8000BF0C37BD465DF8A2
:10109800047B704780B485B000AF78603960002366
:1010A800BB810023FB817B689B8B9BB223F47B6312
:1010B80023F00F039AB27B689A837B6802221A8412
:1010C8007B689B8BBB813B681B88B3F5007F03D093
:1010D8003B681B88002B03D14FF48073FB810BE026
:1010E8003B681B88B3F5407F04D03B681B88B3F589
:1010F800807F01D10023FB813B685A883B6899882F
:101108003B689B890B439BB213439AB2FB891343F9
:101118009AB2BB8913439BB243F40063BB817B68DB
:10112800BA899A8300BF1437BD465DF8047B7047BF
:1011380080B483B000AF78607B689B899BB2184607
:101148000C37BD465DF8047B704700BF80B483B0A0
:1011580000AF78600B467B807B687A889A8100BFF5
:101168000C37BD465DF8047B704700BF80B483B080
:1011780000AF78600B46FB70FB78002B08D07B68CB
:101188001B889BB243F400539AB27B681A8007E02D
:101198007B681B889BB223F400539AB27B681A8041
:1011A80000BF0C37BD465DF8047B704780B483B040
:1011B80000AF78607B681B889BB243F480539AB277
:1011C8007B681A8000BF0C37BD465DF8047B70470A
:1011D80080B485B000AF78600B46FB700023FB81BC
:1011E800FB78012B03D07B681B8BFB8102E07B68BB
:1011F8009B8AFB81FB8918461437BD465DF8047B42
:10120800704700BF80B483B000AF78607B681B8AEA
:101218009BB218460C37BD465DF8047B704700BF8B
:1012280080B483B000AF78600B467B8013467B7038
:101238007B78002B08D07B689B889AB27B88134305
:101248009AB27B689A8009E07B689B889AB27B880F
:10125800DB439BB213409AB27B689A8000BF0C377D
:10126800BD465DF8047B704780B485B000AF7860F8
:101278000B46FB701346BB700023FB810023BB8128
:10128800FB781B09DBB2FB81FB89012202FA03F31D
:10129800BB81BB78002B08D07B689B889AB2BB893E
:1012A80013439AB27B689A8009E07B689B889AB25C
:1012B800BB89DB439BB213409AB27B689A8000BF1C
:1012C8001437BD465DF8047B704700BF80B485B015
:1012D80000AF78600B467B800023FB737B681B891B
:1012E8009AB27B8813409BB2002B02D00123FB7378
:1012F80001E00023FB73FB7B18461437BD465DF8FD
:10130800047B704780B483B000AF78600B467B8065
:101318007B88DB439AB27B681A8100BF0C37BD46D5
:101328005DF8047B704700BF80B485B000AF78607B
:101338000B46FB700023FB730023BB8100237B81DA
:1013480000233B81FB7803F00F03012202FA03F329
:10135800BB81FB781B09DBB27B817B89012202FA06
:1013680003F37B817B689B889AB27B8913403B811E
:101378007B681B899AB2BB8913409BB2002B05D0AE
:101388003B89002B02D00123FB7301E00023FB7390
:10139800FB7B18461437BD465DF8047B704700BFD9
:1013A80080B485B000AF78600B46FB700023FB81EA
:1013B800FB7803F00F03012202FA03F3FB81FB8998
:1013C800DB439AB27B681A8100BF1437BD465DF8CB
:1013D800047B704780B400AF164A164B1B6843F075
:1013E80001031360134B00229A60124A114B1B68C9
:1013F80023F0A85323F4102313600E4B0E4A5A60AF
:101408000C4B0E4AC3F884200A4B0D4AC3F88820B7
:10141800084A084B1B6823F480231360054B0022FD
:10142800DA60044B0022C3F88C2000BFBD465DF88B
:10143800047B704700380240103000240030002040
:101448000030002480B483B000AF0346FB71064B24
:1014580000221A70044AFB79137000BF0C37BD468E
:101468005DF8047B704700BF0238024080B582B047
:1014780000AF00233B600023FB710023BB713120C8
:1014880000F0A4FD0346BB713B6801333B603B6839
:10149800B3F5A04F02D0BB79002BF0D0312000F07B
:1014A80095FD0346002B02D00123FB7101E00023C8
:1014B800FB71FB7918460837BD4680BD80B485B0FE
:1014C80000AF0346FB710023FB600A4B1B68FB60FF
:1014D800FB6823F0F803FB60FB79DB00FA68134331
:1014E800FB60044AFB68136000BF1437BD465DF813
:1014F800047B70470038024080B483B000AF0346D5
:10150800FB71044AFB79136000BF0C37BD465DF8D8
:10151800047B70470000474280B483B000AF0346A5
:10152800FB710D4B00221A700B4B00221A70FB79CD
:10153800012B02D0042B04D007E0074B01221A70BC
:1015480003E0054B05221A7000BF00BF0C37BD46EB
:101558005DF8047B704700BF7038024080B483B0E8
:1015680000AF0346FB71044AFB79136000BF0C37D8
:10157800BD465DF8047B7047800E474280B485B055
:1015880000AFF860B9607A603B600B497B689A01EC
:10159800BB681A433B685B08013B1B041A43FB68A2
:1015A8001A43BB691B0613434B6000BF1437BD4683
:1015B8005DF8047B704700BF0038024080B483B0F8
:1015C80000AF0346FB71044AFB79136000BF0C3778
:1015D800BD465DF8047B70476000474280B483B025
:1015E80000AF7860396007497B689A013B681B0740
:1015F8001343C1F8843000BF0C37BD465DF8047B47
:10160800704700BF0038024080B483B000AF034683
:10161800FB71044AFB79136000BF0C37BD465DF8C7
:10162800047B70476800474280B485B000AFF8601B
:10163800B9607A600849FB689A01BB681B061A43BF
:101648007B681B071343C1F8883000BF1437BD46B9
:101658005DF8047B704700BF0038024080B483B057
:1016680000AF0346FB71044AFB79136000BF0C37D7
:10167800BD465DF8047B70477000474280B483B074
:1016880000AF0346FB71044AFB79136000BF0C37B7
:10169800BD465DF8047B70474C00474280B485B076
:1016A80000AF786039600023FB600B4B9B68FB60E0
:1016B800FB6823F0EC63FB607A683B681343FA68C5
:1016C8001343FB60044AFB68936000BF1437BD46B0
:1016D8005DF8047B704700BF0038024080B485B0D5
:1016E80000AF786039600023FB600B4B9B68FB60A0
:1016F800FB6823F07843FB607A683B681343FA6819
:101708001343FB60044AFB68936000BF1437BD466F
:101718005DF8047B704700BF0038024080B485B094
:1017280000AF78600023FB60094B9B68FB60FB6897
:1017380023F00303FB60FA687B681343FB60044AE9
:10174800FB68936000BF1437BD465DF8047B7047A3
:101758000038024080B400AF054B9B68DBB203F051
:101768000C03DBB21846BD465DF8047B704700BF2A
:101778000038024080B485B000AF78600023FB6079
:10178800094B9B68FB60FB6823F0F003FB60FA6879
:101798007B681343FB60044AFB68936000BF1437FF
:1017A800BD465DF8047B70470038024080B485B0C0
:1017B80000AF78600023FB60094B9B68FB60FB6807
:1017C80023F4E053FB60FA687B681343FB60044A28
:1017D800FB68936000BF1437BD465DF8047B704713
:1017E8000038024080B485B000AF78600023FB6009
:1017F8000A4B9B68FB60FB6823F46043FB607B68D3
:10180800DB00FA681343FB60044AFB68936000BF7F
:101818001437BD465DF8047B704700BF00380240AE
:1018280080B489B000AF78600023BB6100237B617E
:101838000023FB6102233B610023FB600223BB60A2
:10184800484B9B6803F00C03BB61BB69042B07D0B2
:10185800082B09D0002B3FD17B68434A1A603FE030
:101868007B68424A1A603BE03E4B5B6803F48003A6
:101878009B0DFB603B4B5B6803F03F03BB60FB6861
:10188800002B0DD0394ABB68B2FBF3F2354B5968CF
:1018980047F6C0730B409B0903FB02F3FB610CE0A6
:1018A800314ABB68B2FBF3F22E4B596847F6C07356
:1018B8000B409B0903FB02F3FB612A4B5B6803F4B3
:1018C80040331B0C01335B003B61FA693B69B2FB97
:1018D800F3F27B681A6003E07B68234A1A6000BF52
:1018E800204B9B6803F0F003BB61BB691B09BB611C
:1018F8001F4ABB6913441B78DBB27B617B681A689B
:101908007B69DA407B685A60164B9B6803F4E053A6
:10191800BB61BB699B0ABB61154ABB6913441B7851
:10192800DBB27B617B685A687B69DA407B689A60C6
:101938000C4B9B6803F46043BB61BB695B0BBB61E9
:101948000B4ABB6913441B78DBB27B617B685A681E
:101958007B69DA407B68DA6000BF2437BD465DF8F2
:10196800047B7047003802400024F40040787D0171
:101978001400002080B485B000AF78600023FB60BD
:101988007B6803F44073B3F5407F11D10F4B9B681C
:10199800FB60FB6823F4F813FB607B6823F070435B
:1019A80023F44073FA681343FB60084AFB689360AA
:1019B8000649064B1A6F7B68C3F30B0313430B6787
:1019C80000BF1437BD465DF8047B704700380240FD
:1019D80080B483B000AF0346FB71044AFB791360FF
:1019E80000BF0C37BD465DF8047B70473C0E47428C
:1019F80080B483B000AF0346FB71044AFB791360DF
:101A080000BF0C37BD465DF8047B7047400E474267
:101A180080B483B000AF7860044A7B68136000BF6D
:101A28000C37BD465DF8047B704700BF5C01474238
:101A380080B485B000AF78600023FB600A4BD3F810
:101A48008C30FB60FB6823F44013FB60FA687B680A
:101A58001343FB60044AFB68C2F88C3000BF14379C
:101A6800BD465DF8047B70470038024080B485B0FD
:101A780000AF78600023FB600A4BD3F88C30FB6022
:101A8800FB6823F44003FB60FA687B681343FB6040
:101A9800044AFB68C2F88C3000BF1437BD465DF8B5
:101AA800047B70470038024080B485B000AF78608E
:101AB8000023FB600B4BD3F88C30FB60FB6823F0F2
:101AC8001F03FB607B68013BFA681343FB60054A10
:101AD800FB68C2F88C3000BF1437BD465DF8047B44
:101AE800704700BF0038024080B485B000AF78600E
:101AF8000023FB600B4BD3F88C30FB60FB6823F4AE
:101B0800F853FB607B68013B1B02FA681343FB60D8
:101B1800044AFB68C2F88C3000BF1437BD465DF834
:101B2800047B70470038024080B485B000AF78600D
:101B38000023FB600A4BD3F88C30FB60FB6823F46E
:101B48004033FB60FA687B681343FB60044AFB6818
:101B5800C2F88C3000BF1437BD465DF8047B70476F
:101B68000038024080B483B000AF7860044A7B68D4
:101B7800136000BF0C37BD465DF8047B704700BF9B
:101B8800E011474280B483B000AF78600B46FB7029
:101B9800FB78002B06D00A49094B1A6B7B68134364
:101BA8000B6306E00649064B1A6B7B68DB43134060
:101BB8000B6300BF0C37BD465DF8047B704700BF60
:101BC8000038024080B483B000AF78600B46FB70E9
:101BD800FB78002B06D00A49094B5A6B7B681343E4
:101BE8004B6306E00649064B5A6B7B68DB431340A0
:101BF8004B6300BF0C37BD465DF8047B704700BFE0
:101C08000038024080B483B000AF78600B46FB70A8
:101C1800FB78002B06D00A49094B9A6B7B68134363
:101C28008B6306E00649064B9A6B7B68DB431340DF
:101C38008B6300BF0C37BD465DF8047B704700BF5F
:101C48000038024080B483B000AF78600B46FB7068
:101C5800FB78002B06D00A49094B1A6C7B681343A2
:101C68000B6406E00649064B1A6C7B68DB4313409D
:101C78000B6400BF0C37BD465DF8047B704700BF9E
:101C88000038024080B483B000AF78600B46FB7028
:101C9800FB78002B06D00A49094B5A6C7B68134322
:101CA8004B6406E00649064B5A6C7B68DB431340DD
:101CB8004B6400BF0C37BD465DF8047B704700BF1E
:101CC8000038024080B483B000AF78600B46FB70E8
:101CD800FB78002B06D00A49094B1A697B68134325
:101CE8000B6106E00649064B1A697B68DB43134023
:101CF8000B6100BF0C37BD465DF8047B704700BF21
:101D08000038024080B483B000AF78600B46FB70A7
:101D1800FB78002B06D00A49094B5A697B681343A4
:101D28004B6106E00649064B5A697B68DB43134062
:101D38004B6100BF0C37BD465DF8047B704700BFA0
:101D48000038024080B483B000AF78600B46FB7067
:101D5800FB78002B06D00A49094B9A697B68134324
:101D68008B6106E00649064B9A697B68DB431340A2
:101D78008B6100BF0C37BD465DF8047B704700BF20
:101D88000038024080B483B000AF78600B46FB7027
:101D9800FB78002B06D00A49094B1A6A7B68134363
:101DA8000B6206E00649064B1A6A7B68DB43134060
:101DB8000B6200BF0C37BD465DF8047B704700BF5F
:101DC8000038024080B483B000AF78600B46FB70E7
:101DD800FB78002B06D00A49094B5A6A7B681343E3
:101DE8004B6206E00649064B5A6A7B68DB431340A0
:101DF8004B6200BF0C37BD465DF8047B704700BFDF
:101E08000038024080B483B000AF78600B46FB70A6
:101E1800FB78002B06D00A49094B1A6D7B681343DF
:101E28000B6506E00649064B1A6D7B68DB431340D9
:101E38000B6500BF0C37BD465DF8047B704700BFDB
:101E48000038024080B483B000AF78600B46FB7066
:101E5800FB78002B06D00A49094B5A6D7B6813435F
:101E68004B6506E00649064B5A6D7B68DB43134019
:101E78004B6500BF0C37BD465DF8047B704700BF5B
:101E88000038024080B483B000AF78600B46FB7026
:101E9800FB78002B06D00A49094B9A6D7B681343DF
:101EA8008B6506E00649064B9A6D7B68DB43134059
:101EB8008B6500BF0C37BD465DF8047B704700BFDB
:101EC8000038024080B483B000AF78600B46FB70E6
:101ED800FB78002B06D00A49094B1A6E7B6813431E
:101EE8000B6606E00649064B1A6E7B68DB43134017
:101EF8000B6600BF0C37BD465DF8047B704700BF1A
:101F08000038024080B483B000AF78600B46FB70A5
:101F1800FB78002B06D00A49094B5A6E7B6813439D
:101F28004B6606E00649064B5A6E7B68DB43134056
:101F38004B6600BF0C37BD465DF8047B704700BF99
:101F48000038024080B483B000AF0346FB71FB79D0
:101F5800012B06D1094A094B1B6F43F0080313678D
:101F680005E0064A054B1B6F23F00803136700BF03
:101F78000C37BD465DF8047B704700BF003802404F
:101F880080B483B000AF03460A46FB711346BB71A9
:101F9800BB79002B08D00C490B4B1B78DAB2FB79C4
:101FA8001343DBB20B7009E00749074B1B78DAB221
:101FB800FB79DB43DBB21340DBB20B7000BF0C379D
:101FC800BD465DF8047B70470D38024080B487B089
:101FD80000AF0346FB710023FB6000237B610023F5
:101FE800FB74FB795B09DBB2FB60FB68012B03D157
:101FF800124B1B687B6109E0FB68022B03D10F4B76
:102008001B6F7B6102E00D4B5B6F7B61FB7903F01B
:102018001F03FB607A69FB6822FA03F303F00103EC
:10202800002B02D00123FB7401E00023FB74FB7C2E
:1020380018461C37BD465DF8047B704700380240DF
:1020480080B400AF054A054B5B6F43F0807353675C
:1020580000BFBD465DF8047B704700BF00380240F2
:1020680080B485B000AF0346FB710023FB73094BB6
:10207800DA68FB791340002B02D00123FB7301E0DF
:102088000023FB73FB7B18461437BD465DF8047BC1
:10209800704700BF0038024080B483B000AF0346E9
:1020A800FB71044AFB79137000BF0C37BD465DF81D
:1020B800047B70470E38024080B483B000AF78606C
:1020C8007B681B6823F001027B681A607B6800222A
:1020D8001A607B6800225A607B6800229A607B68DD
:1020E8000022DA607B6800221A617B6821225A612B
:1020F8007B68464A934203D1454B3D229A607EE075
:102108007B68444A934204D1414B4FF474629A600D
:1021180075E07B68404A934204D13D4B4FF47412FA
:102128009A606CE07B683D4A934204D1384B4FF08B
:1021380074629A6063E07B68394A934203D1344BF6
:10214800384ADA605BE07B68374A934203D1304B08
:10215800364ADA6053E07B68354A934203D12C4B08
:10216800344ADA604BE07B68334A934204D1284B07
:102178004FF03D52DA6042E07B68304A934203D127
:102188002F4B3D229A603AE07B682E4A934204D155
:102198002B4B4FF474629A6031E07B682A4A934271
:1021A80004D1274B4FF474129A6028E07B68274AC1
:1021B800934204D1224B4FF074629A601FE07B680F
:1021C800234A934203D11E4B164ADA6017E07B6814
:1021D800204A934203D11A4B144ADA600FE07B6815
:1021E8001D4A934203D1164B124ADA6007E07B6816
:1021F8001A4A934203D1124B4FF03D52DA6000BFA6
:102208000C37BD465DF8047B704700BF1060024084
:10221800006002402860024040600240586002406E
:10222800706002403D00002088600240400F00209E
:10223800A060024000003D20B860024010640240E7
:10224800006402402864024040640240586402402E
:102258007064024088640240A0640240B86402408E
:1022680080B485B000AF786039600023FB607B687C
:102278001B68FB60FA68254B1340FB603B681A68D3
:102288003B68DB681A433B685B691A433B689B6998
:102298001A433B68DB691A433B681B6A1A433B686D
:1022A8005B6A1A433B689B6A1A433B685B6B1A4339
:1022B8003B689B6B1343FA681343FB607B68FA68BF
:1022C8001A607B685B69FB60FB6823F00703FB60AF
:1022D8003B68DA6A3B681B6B1343FA681343FB607D
:1022E8007B68FA685A613B681A697B685A603B6880
:1022F8005A687B689A603B689A687B68DA6000BFB6
:102308001437BD465DF8047B704700BF3F801CF062
:1023180080B483B000AF78607B6800221A607B6865
:1023280000225A607B6800229A607B680022DA608B
:102338007B6800221A617B6800225A617B68002250
:102348009A617B680022DA617B6800221A627B68E6
:1023580000225A627B6800229A627B680022DA6255
:102368007B6800221A637B6800225A637B6800221C
:102378009A6300BF0C37BD465DF8047B704700BF09
:1023880080B483B000AF78600B46FB70FB78002BFD
:1023980006D07B681B6843F001027B681A6005E081
:1023A8007B681B6823F001027B681A6000BF0C374A
:1023B800BD465DF8047B704780B483B000AF786099
:1023C80039603B68002B06D07B681B6843F40042E9
:1023D8007B681A6005E07B681B6823F400427B6811
:1023E8001A6000BF0C37BD465DF8047B704700BF1C
:1023F80080B483B000AF786039603B68002B06D0AA
:102408007B681B6843F020027B681A6005E07B68E4
:102418001B6823F020027B681A6000BF0C37BD469A
:102428005DF8047B704700BF80B483B000AF78606C
:102438000B467B807A887B685A6000BF0C37BD46A4
:102448005DF8047B704700BF80B483B000AF78604C
:102458007B685B689BB218460C37BD465DF8047B09
:10246800704700BF80B485B000AFF860B9607A608B
:102478007B68002B06D0FB681B6843F40022FB68CE
:102488001A6005E0FB681B6823F40022FB681A60E9
:10249800FB68BA681A6100BF1437BD465DF8047B53
:1024A800704700BF80B483B000AF78600B46FB7004
:1024B800FB78002B06D07B681B6843F480227B687E
:1024C8001A6005E07B681B6823F480227B681A6029
:1024D80000BF0C37BD465DF8047B704780B485B0FB
:1024E80000AFF860B9607A607B68002B03D0FB68A6
:1024F800BA681A6102E0FB68BA68DA6000BF14378C
:10250800BD465DF8047B704780B485B000AF786045
:102518000023FB607B681B6803F40023002B02D0B8
:102528000123FB6001E00023FB60FB6818461437B9
:10253800BD465DF8047B704780B485B000AF786015
:102548000023FB737B681B6803F00103002B02D098
:102558000123FB7301E00023FB73FB7B1846143750
:10256800BD465DF8047B704780B485B000AF7860E5
:102578000023FB607B685B6903F03803FB60FB6842
:1025880018461437BD465DF8047B704780B487B0A1
:1025980000AF786039600023FB750023FB607B681F
:1025A800154A934202D8154B3B6101E0144B3B613D
:1025B8003B6803F00053002B03D03B695B68FB606A
:1025C80002E03B691B68FB60FB6823F0F02323F003
:1025D8008213FB60FA683B681340002B02D001238A
:1025E800FB7501E00023FB75FB7D18461C37BD46D3
:1025F8005DF8047B704700BF0F6402400060024032
:102608000064024080B485B000AF786039607B68B0
:10261800104A934202D8104BFB6001E00F4BFB605D
:102628003B6803F00053002B07D03B6823F0F023EE
:1026380023F08213FA68D36006E03B6823F0F023A6
:1026480023F08213FA68936000BF1437BD465DF823
:10265800047B70470F64024000600240006402403F
:1026680080B485B000AFF860B9601346FB71BB68F1
:1026780003F08003002B0FD0FB79002B06D0FB68FA
:102688005B6943F08002FB685A6105E0FB685B699F
:1026980023F08002FB685A61BB68802B14D0FB7959
:1026A800002B08D0FB681A68BB6803F01E031A43A6
:1026B800FB681A6008E0FB681A68BB6803F01E0331
:1026C800DB431A40FB681A6000BF1437BD465DF84B
:1026D800047B704780B487B000AF7860396000230E
:1026E800FB750023FB600023BB607B68224A934292
:1026F80002D8224B3B6101E0214B3B613B6823F050
:10270800F02323F0C313002B0AD03B68DB0A03F045
:102718001E03FB607B681A68FB681340BB6004E01B
:102728007B685B6903F08003BB603B6803F0005380
:10273800002B03D03B695B68FB6002E03B691B68C8
:10274800FB60FB6823F0F02323F08213FB60FA6838
:102758003B681340002B05D0BB68002B02D0012337
:10276800FB7501E00023FB75FB7D18461C37BD4651
:102778005DF8047B704700BF0F64024000600240B0
:102788000064024080B485B000AF786039607B682F
:10279800104A934202D8104BFB6001E00F4BFB60DC
:1027A8003B6803F00053002B07D03B6823F0F0236D
:1027B80023F08213FA68D36006E03B6823F0F02325
:1027C80023F08213FA68936000BF1437BD465DF8A2
:1027D800047B70470F6402400060024000640240BE
:1027E80080B582B000AF78607B684B4A934208D1CD
:1027F80001210120FFF766FA00210120FFF762FAA4
:1028080086E07B68454A934208D101210220FFF700
:1028180059FA00210220FFF755FA79E07B68404A0F
:10282800934208D101210420FFF74CFA002104202B
:10283800FFF748FA6CE07B683A4A934208D10121D5
:102848000820FFF73FFA00210820FFF73BFA5FE076
:102858007B68354A934208D101211020FFF732FAEC
:1028680000211020FFF72EFA52E07B682F4A93428E
:1028780008D101212020FFF725FA00212020FFF7A9
:1028880021FA45E07B682A4A934208D10121402079
:10289800FFF718FA00214020FFF714FA38E07B68A8
:1028A800244A934208D101218020FFF70BFA002126
:1028B8008020FFF707FA2BE07B681F4A93420AD172
:1028C80001214FF48070FFF7FDF900214FF480706B
:1028D800FFF7F8F91CE07B68184A93420AD10121F6
:1028E8004FF40070FFF7EEF900214FF40070FFF786
:1028F800E9F90DE07B68124A934209D101214FF4AE
:102908008060FFF7DFF900214FF48060FFF7DAF904
:1029180000BF0837BD4680BD0000024000040240E9
:1029280000080240000C024000100240001402405F
:1029380000180240001C024000200240002402400F
:102948000028024080B487B000AF78603960002367
:102958007B6100233B610023FB6000237B6176E001
:1029680001227B6902FA03F33B613B681A683B6901
:102978001340FB60FA683B699A4265D17B681A6824
:102988007B695B00032101FA03F3DB431A407B6890
:102998001A607B681A683B681B7919467B695B007B
:1029A80001FA03F31A437B681A603B681B79012B11
:1029B80003D03B681B79022B2ED17B689A687B6910
:1029C8005B00032101FA03F3DB431A407B689A603A
:1029D8007B689A683B685B7919467B695B0001FAFA
:1029E80003F31A437B689A607B685A687B699BB2D9
:1029F800012101FA03F3DB431A407B685A607B68C4
:102A08005A683B689B7919467B699BB201FA03F3C4
:102A18009BB21A437B685A607B68DA687B699BB211
:102A28005B00032101FA03F3DB431A407B68DA6099
:102A38007B68DA683B68DB7919467B695B0001FAD9
:102A480003F31A437B68DA607B6901337B617B6936
:102A58000F2B85D900BF1C37BD465DF8047B704736
:102A680080B483B000AF78607B684FF6FF721A605D
:102A78007B6800221A717B6800225A717B680022E9
:102A88009A717B680022DA7100BF0C37BD465DF889
:102A9800047B704780B485B000AF78600B467B80BC
:102AA8004FF48033FB607A88FB681343FB60FA6855
:102AB8007B68DA617A887B68DA61FA687B68DA6150
:102AC8007B68DB69FB607B68DB69FB6000BF1437F0
:102AD800BD465DF8047B704780B485B000AF786070
:102AE8000B467B800023FB737B681A697B88134045
:102AF800002B02D00123FB7301E00023FB73FB7B57
:102B080018461437BD465DF8047B704780B483B01F
:102B180000AF78607B681B699BB218460C37BD46CE
:102B28005DF8047B704700BF80B485B000AF786063
:102B38000B467B800023FB737B685A697B881340B4
:102B4800002B02D00123FB7301E00023FB73FB7B06
:102B580018461437BD465DF8047B704780B483B0CF
:102B680000AF78607B685B699BB218460C37BD463E
:102B78005DF8047B704700BF80B483B000AF786015
:102B88000B467B807B687A881A8300BF0C37BD466A
:102B98005DF8047B704700BF80B483B000AF7860F5
:102BA8000B467B807B687A885A8300BF0C37BD460A
:102BB8005DF8047B704700BF80B483B000AF7860D5
:102BC8000B467B8013467B707B78002B03D07B6899
:102BD8007A881A8302E07B687A885A8300BF0C37A8
:102BE800BD465DF8047B704780B483B000AF786061
:102BF8000B467B807A887B685A6100BF0C37BD46DC
:102C08005DF8047B704700BF80B483B000AF786084
:102C18000B467B807B685A697B885A407B685A617F
:102C280000BF0C37BD465DF8047B704780B485B0A3
:102C380000AF78600B467B8013467B700023FB60F7
:102C48000023BB607A787B8803F007039B0002FAB5
:102C580003F3FB607B88DB089BB218467B88DB08A4
:102C68009BB21A467B68083253F822207B8803F00F
:102C780007039B000F2101FA03F3DB4302EA030178
:102C88007B6800F1080243F822107B88DB089BB2BE
:102C98001A467B68083253F82220FB681343BB604E
:102CA8007B88DB089BB21A467B680832B96843F810
:102CB800221000BF1437BD465DF8047B704700BF83
:102CC800002103E00A4B5B584350043109480A4B82
:102CD80042189A42F6D3094A02E0002342F8043B1C
:102CE800074B9A42F9D3FDF783FAFDF7B1FB70471A
:102CF800D42D00080000002024000020240000201B
:102D080024000020FEE7000070B4840746D0541E5B
:102D1800002A41D0CDB2034602E0621EE4B3144655
:102D280003F8015B9A07F8D1032C2ED9CDB245EAF6
:102D380005250F2C45EA054519D903F11002264649
:102D4800103E0F2E42F8105C42F80C5C42F8085C0A
:102D580042F8045C02F11002F2D8A4F1100222F049
:102D68000F0204F00F041032032C13440DD91E4631
:102D78002246043A032A46F8045BFAD8221F22F0B6
:102D880003020432134404F003042CB1C9B21C44F6
:102D980003F8011BA342FBD170BC704714460346DD
:102DA800C2E700BF010101010101010101010101A7
:102DB80001010101010101010101010101010101FB
:0C2DC800010101013434343434000000F7
:102DD400007A030A0000000000000000010203045E
:102DE40006070809000000000102030401020304AD
:042DF40006070809BD
:0400000508002CC9FA
:00000001FF
