:020000040800F2
:10000000000002206104000889010008990100082D
:10001000A1010008A9010008B101000800000000CA
:10002000000000000000000000000000B90100080E
:10003000C901000800000000D9010008E90100081A
:10004000A5040008A5040008A5040008A5040008EC
:10005000A5040008A5040008A5040008A5040008DC
:10006000A5040008A5040008A5040008A5040008CC
:10007000A5040008A5040008A5040008A5040008BC
:10008000A5040008A5040008A5040008A5040008AC
:10009000A5040008A5040008A5040008A50400089C
:1000A000A5040008A5040008A5040008A50400088C
:1000B000A5040008A5040008A5040008A50400087C
:1000C000A5040008A5040008A5040008A50400086C
:1000D000A5040008A5040008A5040008A50400085C
:1000E000A5040008A5040008A5040008A50400084C
:1000F000A5040008A5040008A5040008A50400083C
:10010000A5040008A5040008A5040008A50400082B
:10011000A5040008A5040008A5040008A50400081B
:10012000A5040008A5040008A5040008A50400080B
:10013000A5040008A5040008A5040008A5040008FB
:10014000A5040008A5040008A5040008A5040008EB
:10015000A5040008A5040008A5040008A5040008DB
:10016000A5040008A5040008A5040008A5040008CB
:10017000A5040008A5040008A5040008A5040008BB
:08018000A5040008A504000815
:1001880080B400AF00BFBD465DF8047B704700BF78
:1001980080B400AFFEE700BF80B400AFFEE700BF49
:1001A80080B400AFFEE700BF80B400AFFEE700BF39
:1001B80080B400AF00BFBD465DF8047B704700BF48
:1001C80080B400AF00BFBD465DF8047B704700BF38
:1001D80080B400AF00BFBD465DF8047B704700BF28
:1001E80080B400AF00BFBD465DF8047B704700BF18
:1001F80080B500AF164A164BD3F8883043F4700325
:10020800C2F88830134A134B1B6843F0010313608C
:10021800104B00229A600F4A0E4B1B6823F0847320
:1002280023F4803313600B4B0B4A5A60094A094B7D
:100238001B6823F480231360064B0022DA6000F069
:100248008BF8034B4FF000629A6000BF80BD00BF7F
:1002580000ED00E0003802401030002480B487B080
:1002680000AF00233B6100237B610223FB60002376
:10027800BB6002237B60334B9B6803F00C033B613C
:100288003B69042B07D0082B09D0002B3FD12E4BFC
:100298002E4A1A603FE02C4B2D4A1A603BE0294B4E
:1002A8005B6803F480039B0DBB60264B5B6803F01F
:1002B8003F037B60BB68002B0DD0254A7B68B2FBEF
:1002C800F3F2204B596847F6C0730B409B0903FBB8
:1002D80002F37B610CE01D4A7B68B2FBF3F2194B19
:1002E800596847F6C0730B409B0903FB02F37B6117
:1002F800144B5B6803F440331B0C01335B00FB6059
:100308007A69FB68B2FBF3F30F4A136003E00E4B04
:100318000E4A1A6000BF0B4B9B6803F0F0031B09E1
:100328000C4AD35CDBB23B61074B1A683B6922FA83
:1003380003F3054A136000BF1C37BD465DF8047B14
:10034800704700BF00380240000000200024F4007D
:1003580000127A000400002080B483B000AF0023AC
:100368007B6000233B60364A354B1B6843F480337F
:100378001360334B1B6803F400333B607B68013325
:100388007B603B68002B03D17B68B3F5A04FF0D1AD
:100398002B4B1B6803F40033002B02D001233B6076
:1003A80001E000233B603B68012B42D1244A244BE7
:1003B8001B6C43F080531364224A224B1B6843F49E
:1003C800404313601E4A1E4B9B6893601C4A1C4B9B
:1003D8009B6843F400439360194A194B9B6843F4A4
:1003E800A0539360164B184A5A60154A144B1B6861
:1003F80043F08073136000BF114B1B6803F0007358
:10040800002BF9D0114B40F205721A600C4A0C4BC4
:100418009B6823F003039360094A094B9B6843F0E8
:100428000203936000BF064B9B6803F00C03082B84
:10043800F9D100BF0C37BD465DF8047B704700BF9B
:100448000038024000700040195A4007003C024042
:1004580080B400AFFEE700BF002103E00A4B5B5801
:100468004350043109480A4B42189A42F6D3094AC4
:1004780002E0002342F8043B074B9A42F9D3FFF706
:10048800B7FEFFF7E5FF7047A8040008000000204A
:10049800140000201400002014000020FEE70000D3
:1004A800007A030A000000000000000001020304B3
:0404B8000607080922
:04000005080004618A
:00000001FF
